:100000000C9472000C9493000C9493000C94930045
:100010000C9493000C9493000C9493000C94930014
:100020000C9493000C9455040C9493000C9493003E
:100030000C9493000C9493000C9493000C949300F4
:100040000C9493000C9493000C9493000C949300E4
:100050000C9493000C9493000C9493000C949300D4
:100060000C9493000C9493000C9493000C949300C4
:100070000C9493000C9493000C9493000C949300B4
:100080000C9493000C9493000C9493000C949300A4
:100090000C9493000C9493000C9493000C94930094
:1000A0000C9493000C9493000C9493000C94930084
:1000B0000C9493000C9493000C9493000C94930074
:1000C0000C9493000C9493000C94DC040C94930017
:1000D0000C9493000C9493000C9493000C94930054
:1000E0000C94930011241FBECFEFD1E2DEBFCDBF31
:1000F00000E00CBF13E0A0E0B2E0E8E4F9E100E0CA
:100100000BBF02C007900D92A231B107D9F713E0DF
:10011000A2E1B3E001C01D92AC31B107E1F70E944A
:10012000D4010C94A20C0C940000DF93CF93CDB7B4
:10013000DEB7A1E0B1E0E1E0F1E0808180628C9384
:10014000A1E0B1E0E1E0F1E0808180618C93A3E384
:10015000B0E0E3E3F0E0808180628C93A2E0B1E064
:10016000E2E0F1E080818F7E8C93A4E3B0E0E4E3F1
:10017000F0E080818F7D8C93CF91DF910895DF93A4
:10018000CF9300D00F920F92CDB7DEB78D831C8234
:100190001B8237C08D81282F332727FD309581E0C2
:1001A00090E00B8002C0880F991F0A94E2F7822327
:1001B00093239A83898389819A81009741F0A2E0F1
:1001C000B1E0E2E0F1E0808180628C9307C0A2E0C0
:1001D000B1E0E2E0F1E080818F7D8C93A2E0B1E0BC
:1001E000E2E0F1E0808180618C93A2E0B1E0E2E0A6
:1001F000F1E080818F7E8C938B819C8101969C8322
:100200008B838B819C818830910524F20F900F9015
:100210000F900F900F90CF91DF910895DF93CF93C0
:100220000F92CDB7DEB7898389810E94BF000F90FE
:10023000CF91DF910895DF93CF930F920F92CDB7B7
:10024000DEB789836A83A4E3B0E0E4E3F0E0808171
:100250008F7D8C9389810E94BF008A810E940E014C
:10026000A4E3B0E0E4E3F0E0808180628C930F903F
:100270000F90CF91DF910895EF92FF920F931F930C
:10028000DF93CF93CDB7DEB72E970FB6F894DEBFCE
:100290000FBECDBF9E878D878D859E8599230CF4DB
:1002A00076C08D859E8527E2803192070CF06FC065
:1002B0008D859E8528EE33E0B9010E94440CCB0168
:1002C0008C018D859E8524E630E0B9010E94440CA6
:1002D000CB012AE030E0B9010E94440C7C018D85FD
:1002E0009E852AE030E0B9010E94440CCB012AE04F
:1002F00030E0B9010E94440CFC018D859E852AE006
:1003000030E0B9010E94440C1E830D83F886EF8211
:10031000FA87E9879C878B871C821B8233C08B817D
:100320009C819C01220F331FCE010196820F931FE7
:10033000FC01349680819181FC01E050FE4F808168
:10034000992787FD90959A8389838B819C81823040
:10035000910529F489819A818E7F9A8389832981E5
:1003600080E890E00B8002C0959587950A94E2F7AB
:10037000982F822F692F0E941B018B819C810196EF
:100380009C838B838B819C818430910544F22E96D3
:100390000FB6F894DEBF0FBECDBFCF91DF911F9196
:1003A0000F91FF90EF900895DF93CF9300D00F92BD
:1003B000CDB7DEB780E090E0A0E0B0E089839A831B
:1003C000AB83BC830E942F040E949500789480E048
:1003D00090E00E940E02AA2797FDA095BA2FBC01BB
:1003E000CD010E940509DC01CB0189839A83AB838F
:1003F000BC8369817A818B819C8120E030E040E27E
:1004000051E40E94CF06DC01CB01BC01CD010E946A
:100410006309DC01CB010E943C01EBCFDF93CF935A
:10042000CDB7DEB7EA970FB6F894DEBF0FBECDBFEB
:100430009EAB8DAB8DA99EA99AAF89AF89AD9AADC0
:10044000009731F089AD9AAD8130910549F00FC028
:10045000EBE6F0E01082EBE6F0E081E0808307C09D
:10046000EBE6F0E01082EBE6F0E082E08083ABE2C6
:10047000B0E0EBE2F0E08081282F81E090E00DA871
:1004800002C0880F991F0A94E2F7822B8C9380E0B8
:1004900090E0A0E7B1E48DA79EA7AFA7B8AB6DA58C
:1004A0007EA58FA598A92BEA3AEA4AEA50E40E9471
:1004B000CF06DC01CB0189A79AA7ABA7BCA769A58A
:1004C0007AA58BA59CA520E030E040E85FE30E9480
:1004D000D50888231CF481E088A791C069A57AA576
:1004E0008BA59CA520E030E04FE753E40E947508FF
:1004F00018160CF07BC06DA57EA58FA598A920E0ED
:1005000030E04AE754E40E94C907DC01CB018CA328
:100510009DA3AEA3BFA36CA17DA18EA19FA120E04E
:1005200030E04AE755E40E94CF06DC01CB0188A306
:1005300099A3AAA3BBA368A179A18AA19BA120E04A
:1005400030E040E85FE30E94D50888232CF481E086
:1005500090E09F8F8E8F3FC068A179A18AA19BA157
:1005600020E03FEF4FE757E40E94750818164CF55E
:100570006CA17DA18EA19FA120E030E040E251E47A
:100580000E94CF06DC01CB01BC01CD010E94F90421
:10059000DC01CB019F8F8E8F0FC080E991E09D8F92
:1005A0008C8F8C8D9D8D0197F1F79D8F8C8F8E8D0B
:1005B0009F8D01979F8F8E8F8E8D9F8D009769F7EE
:1005C00024C068A179A18AA19BA10E94F904DC0141
:1005D000CB019F8F8E8F8E8D9F8D9B8F8A8F8A8D63
:1005E0009B8D0197F1F79B8F8A8F0FC069A57AA524
:1005F0008BA59CA50E94F904DC01CB0188A788A5E6
:10060000898F898D8A95F1F7898FABE2B0E0EBE2B3
:10061000F0E08081282F81E090E00DA802C0880FD3
:10062000991F0A94E2F7809582238C9381E090E0F1
:10063000909313038093120380E090E0A0E7B1E46D
:100640008D8B9E8BAF8BB88F6D897E898F89988DAE
:100650002BEA3AEA4AEA50E40E94CF06DC01CB01D9
:10066000898B9A8BAB8BBC8B69897A898B899C89A6
:1006700020E030E040E85FE30E94D50888231CF4C6
:1006800081E0888B91C069897A898B899C8920E077
:1006900030E04FE753E40E94750818160CF07BC059
:1006A0006D897E898F89988D20E030E04AE754E497
:1006B0000E94C907DC01CB018C879D87AE87BF876D
:1006C0006C857D858E859F8520E030E04AE755E486
:1006D0000E94CF06DC01CB0188879987AA87BB8758
:1006E000688579858A859B8520E030E040E85FE376
:1006F0000E94D50888232CF481E090E09F838E83AC
:100700003FC0688579858A859B8520E03FEF4FE76C
:1007100057E40E94750818164CF56C857D858E850A
:100720009F8520E030E040E251E40E94CF06DC01EA
:10073000CB01BC01CD010E94F904DC01CB019F83F8
:100740008E830FC080E991E09D838C838C819D8195
:100750000197F1F79D838C838E819F8101979F8301
:100760008E838E819F81009769F724C06885798583
:100770008A859B850E94F904DC01CB019F838E83CF
:100780008E819F819B838A838A819B810197F1F768
:100790009B838A830FC069897A898B899C890E948F
:1007A000F904DC01CB01888B8889898389818A954A
:1007B000F1F7898319AA1AAA1BAA1CAA1FC089A922
:1007C0009AA9ABA9BCA9813022E592072CE1A20726
:1007D00020E0B20740F0EBE6F0E0108288EC90E019
:1007E00098AF8FAB31C089A99AA9ABA9BCA90196D2
:1007F000A11DB11D89AB9AABABABBCAB8091120311
:10080000909113030097D9F68091160390911703E6
:10081000A0911803B0911903BC01CD010E94B70942
:10082000DC01CB01BC01CD0120E030E048E654E41E
:100830000E94C907DC01CB01BC01CD010E94630904
:10084000DC01CB0198AF8FAB8FA998ADEA960FB6BC
:10085000F894DEBF0FBECDBFCF91DF910895DF9337
:10086000CF93CDB7DEB7AAE2B0E0EAE2F0E0808154
:1008700081608C93ABE2B0E0EBE2F0E080818E7FB0
:100880008C93A4E2B0E0E4E2F0E080818E7F8C9370
:10089000A8E6B0E0E8E6F0E0808181608C93EBE6CA
:1008A000F0E01082CF91DF9108951F920F920FB662
:1008B0000F9200905B000F921124EF92FF920F9322
:1008C0001F932F933F934F935F936F937F938F93D8
:1008D0009F93AF93BF93EF93FF93DF93CF93CDB7E6
:1008E000DEB780911A0390911B0381309105C9F501
:1008F000E1E2F1E01082E4E2F1E0808191817C01AB
:1009000000E010E08091140390911503AA2797FD51
:10091000A095BA2F2FEF3FEF40E050E0BC01CD0192
:100920000E94250CDC01CB018E0D9F1DA01FB11F65
:100930008093160390931703A0931803B0931903A1
:10094000E4E2F1E01182108210921B0310921A036C
:1009500010921303109212031092150310921403B5
:1009600011C0A1E2B1E0E1E2F1E0808181608C930D
:10097000E3E7F0E081E0808381E090E090931B0367
:1009800080931A03CF91DF91FF91EF91BF91AF91C7
:100990009F918F917F916F915F914F913F912F9197
:1009A0001F910F91FF90EF900F9000925B000F90BE
:1009B0000FBE0F901F9018951F920F920FB60F92B7
:1009C00011248F939F93DF93CF93CDB7DEB78091A0
:1009D00014039091150301969093150380931403CB
:1009E000CF91DF919F918F910F900FBE0F901F902D
:1009F0001895EF92FF920F931F937B018C0120E0DB
:100A000030E040E05FE40E94A50888238CF0C80134
:100A1000B70120E030E040E05FE40E9471060E94F0
:100A200063099B01AC01205030404040504806C053
:100A3000C801B7010E9463099B01AC01B901CA0159
:100A40001F910F91FF90EF900895A0E0B0E0EBE2CE
:100A5000F5E00C946B0CDC012B01FA019C919230B7
:100A600008F439C1EB018881823008F433C1943035
:100A700069F4843009F02FC111969C9111978981F6
:100A8000981709F428C1AAE0B2E025C1843009F41E
:100A900021C18230A9F4923009F01DC19A01AD0143
:100AA00088E0EA010990AE01E90109929E018150B6
:100AB000C1F7E201898111969C918923818308C144
:100AC000923009F407C112962D903C901397EB01D8
:100AD0008A819B811496AD90BD90CD90DC90179744
:100AE000EC80FD800E811F819101281B390BB9011B
:100AF00037FF04C066277727621B730B60327105CE
:100B00000CF061C0121613066CF537014801062E71
:100B100004C096948794779467940A94D2F721E05E
:100B200030E040E050E004C0220F331F441F551F47
:100B30006A95D2F721503040404050402E213F214D
:100B400040235123211531054105510521F021E0B4
:100B500030E040E050E079018A01E628F7280829D2
:100B600019293CC0232BD1F1260E371E3501460131
:100B7000062E04C096948794779467940A94D2F7CB
:100B800021E030E040E050E004C0220F331F441F5A
:100B9000551F6A95D2F721503040404050402A21DD
:100BA0003B214C215D21211531054105510521F0E5
:100BB00021E030E040E050E059016A01A628B72862
:100BC000C828D9280BC0821593052CF01C01AA2433
:100BD000BB24650103C0EE24FF24870111969C917C
:100BE000D20111968C91981709F445C0992339F0D8
:100BF000A80197012A193B094C095D0906C0A60105
:100C000095012E193F09400B510B57FD08C0118269
:100C10003382228224833583468357831DC081E03B
:100C200081833382228288279927DC01821B930BE0
:100C3000A40BB50B84839583A683B7830DC0220FC5
:100C4000331F441F551F2483358346835783828176
:100C500093810197938382832481358146815781D3
:100C6000DA01C9010197A109B1098F5F9F4FAF4F09
:100C7000BF4328F30BC0918333822282EA0CFB1C12
:100C80000C1D1D1DE482F5820683178383E080839B
:100C9000248135814681578157FF1AC0C901AA278F
:100CA00097FDA095BA2F81709070A070B070569586
:100CB000479537952795822B932BA42BB52B8483AF
:100CC0009583A683B78382819381019693838283E0
:100CD000DF0101C0D201CD01CDB7DEB7E2E10C9456
:100CE000870CA0E2B0E0E7E7F6E00C94770C6983AC
:100CF0007A838B839C832D833E834F835887E9E0DF
:100D0000EE2EF12CEC0EFD1ECE010196B7010E94D5
:100D1000540B8E010F5E1F4FCE010596B8010E9445
:100D2000540B8A8991E089278A8BC701B801AE01EB
:100D3000475E5F4F0E9425050E947F0AA096E6E06D
:100D40000C94930CA0E2B0E0E8EAF6E00C94770C87
:100D500069837A838B839C832D833E834F8358875B
:100D6000F9E0EF2EF12CEC0EFD1ECE010196B7013D
:100D70000E94540B8E010F5E1F4FCE010596B801E5
:100D80000E94540BC701B801AE01475E5F4F0E943D
:100D900025050E947F0AA096E6E00C94930CA0E241
:100DA000B0E0E5EDF6E00C946B0C69837A838B83FD
:100DB0009C832D833E834F835887CE010196BE01CD
:100DC000675F7F4F0E94540BCE010596BE016F5E98
:100DD0007F4F0E94540B9985923088F08989823028
:100DE000C8F0943019F4823051F404C0843029F4EE
:100DF000923081F48AE092E0C6C0923049F420E05B
:100E00009A858A89981321E02A87CE010996BBC06A
:100E1000823049F420E09A858A89981321E02A8B50
:100E2000CE014196B0C02D843E844F8458886D8891
:100E30007E888F88988CEE24FF248701AA24BB2407
:100E4000650140E050E060E070E0E0E0F0E0C1010A
:100E500081709070892BE9F0E60CF71C081D191DB4
:100E60009A01AB012A0D3B1D4C1D5D1D80E090E0F9
:100E7000A0E0B0E0E614F7040805190520F481E0CD
:100E800090E0A0E0B0E0BA01A901480F591F6A1F25
:100E90007B1FAA0CBB1CCC1CDD1C97FE08C081E08C
:100EA00090E0A0E0B0E0A82AB92ACA2ADB2A31964D
:100EB000E032F10549F0660C771C881C991C5694A9
:100EC000479437942794C3CFFA85EA892B893C89C4
:100ED0008B859C85280F391F2E5F3F4F17C0CA0195
:100EE00081709070892B61F016950795F794E794BF
:100EF00080E090E0A0E0B0E8E82AF92A0A2B1B2B5A
:100F000076956795579547952F5F3F4F77FDE7CFCC
:100F10000CC0440F551F661F771F17FD4160EE0C74
:100F2000FF1C001F111F21503040403090E0590736
:100F300090E0690790E4790760F32B8F3C8FDB0129
:100F4000CA018F779070A070B07080349105A105B0
:100F5000B10561F447FD0AC0E114F1040105110572
:100F600029F0405C5F4F6F4F7F4F40781A8EFE171D
:100F700011F081E08A8F4D8F5E8F6F8F78A383E0B1
:100F8000898FCE0149960E947F0AA096E2E10C94D7
:100F9000870CA8E1B0E0EFECF7E00C94730C6983E8
:100FA0007A838B839C832D833E834F835887B9E05C
:100FB000EB2EF12CEC0EFD1ECE010196B7010E9426
:100FC000540B8E010F5E1F4FCE010596B8010E9493
:100FD000540B2985223008F47EC03989323010F450
:100FE000B8017CC08A859A8989278A87243011F0C4
:100FF000223031F4231709F06EC06AE072E06EC04F
:10100000343039F41D861E861F86188A1C861B867E
:1010100004C0323021F484E08987B7015FC02B859A
:101020003C858B899C89281B390B3C872B87ED8459
:10103000FE840F851889AD88BE88CF88D88CEA14C5
:10104000FB040C051D0540F4EE0CFF1C001F111FD6
:10105000215030403C872B8720E030E040E050E0DA
:1010600080E090E0A0E0B0E460E070E0EA14FB040F
:101070000C051D0540F0282B392B4A2B5B2BEA1859
:10108000FB080C091D09B695A79597958795EE0C59
:10109000FF1C001F111F6F5F7F4F6F31710531F70C
:1010A000DA01C9018F779070A070B070803491051B
:1010B000A105B10561F427FD0AC0E114F1040105A1
:1010C000110529F0205C3F4F4F4F5F4F20782D874F
:1010D0003E874F87588BBE01675F7F4FCB010E94D1
:1010E0007F0A6896EAE00C948F0CA8E1B0E0EBE789
:1010F000F8E00C94770C69837A838B839C832D832F
:101100003E834F83588789E0E82EF12CEC0EFD1EBC
:10111000CE010196B7010E94540B8E010F5E1F4F46
:10112000CE010596B8010E94540B8985823040F0AB
:101130008989823028F0C701B8010E94CC0B01C018
:101140008FEF6896E6E00C94930CA8E1B0E0EBEA30
:10115000F8E00C94770C69837A838B839C832D83CE
:101160003E834F83588789E0E82EF12CEC0EFD1E5C
:10117000CE010196B7010E94540B8E010F5E1F4FE6
:10118000CE010596B8010E94540B8985823040F04B
:101190008989823028F0C701B8010E94CC0B01C0B8
:1011A0008FEF6896E6E00C94930CA8E1B0E0EBEDCD
:1011B000F8E00C94770C69837A838B839C832D836E
:1011C0003E834F83588789E0E82EF12CEC0EFD1EFC
:1011D000CE010196B7010E94540B8E010F5E1F4F86
:1011E000CE010596B8010E94540B8985823040F0EB
:1011F0008989823028F0C701B8010E94CC0B01C058
:1012000081E06896E6E00C94930CA8E0B0E0EBE097
:10121000F9E00C94740C9B01AC0183E08983DA0142
:10122000C9018827B7FD83959927AA27BB27B82E20
:10123000211531054105510519F482E089833AC031
:101240008823A9F0203080E0380780E0480780E854
:10125000580729F460E070E080E09FEC30C0EE2495
:10126000FF248701E21AF30A040B150B02C079016F
:101270008A018EE1C82ED12CDC82CB82ED82FE82E7
:101280000F831887C801B7010E94300A019718160A
:10129000190684F4082E04C0EE0CFF1C001F111F59
:1012A0000A94D2F7ED82FE820F831887C81AD90AF2
:1012B000DC82CB82BA82CE0101960E947F0A2896F8
:1012C000E9E00C94900CACE0B0E0E9E6F9E00C94B5
:1012D0007B0C69837A838B839C83CE010196BE014C
:1012E0006B5F7F4F0E94540B8D81823061F18230A1
:1012F00050F1843021F48E81882351F12EC02F814A
:10130000388537FD20C06E812F3131051CF06623F2
:10131000F9F023C08EE190E0821B930B29853A857A
:101320004B855C8504C056954795379527958A95DA
:10133000D2F76623B1F050954095309521953F4FF7
:101340004F4F5F4F0EC020E030E040E050E009C05A
:101350002FEF3FEF4FEF5FE704C020E030E040E0C9
:1013600050E8B901CA012C96E2E00C94970CA8E071
:10137000B0E0EDEBF9E00C94730C7B018C0161158E
:1013800071058105910519F482E0898360C083E0CD
:1013900089838EE1C82ED12CDC82CB82ED82FE8245
:1013A0000F831887C801B7010E94300AFC013197EA
:1013B000F7FF3BC0222733272E1B3F0B5701680145
:1013C000022E04C0D694C794B794A7940A94D2F777
:1013D00040E050E060E070E081E090E0A0E0B0E04C
:1013E00004C0880F991FAA1FBB1F2A95D2F7019727
:1013F000A109B1098E219F21A023B1230097A10546
:10140000B10521F041E050E060E070E04A295B293D
:101410006C297D294D835E836F8378878EE190E010
:101420008E1B9F0B9C838B8312C0309781F00E2EF6
:1014300004C0EE0CFF1C001F111F0A94D2F7ED82AE
:10144000FE820F831887CE1ADF0ADC82CB821A82D3
:10145000CE0101960E947F0A2896EAE00C948F0C38
:10146000EF92FF920F931F937B018C0180E0E816AF
:1014700080E0F80681E0080780E0180788F48FEF25
:10148000E816F1040105110531F028F088E090E03C
:10149000A0E0B0E017C080E090E0A0E0B0E012C0B3
:1014A00080E0E81680E0F80680E0080781E0180791
:1014B00028F088E190E0A0E0B0E004C080E190E096
:1014C000A0E0B0E020E230E040E050E0281B390B23
:1014D0004A0B5B0B04C016950795F794E7948A9521
:1014E000D2F7F701EE5EFD4F8081281B31094109DB
:1014F0005109C9011F910F91FF90EF900895DF925C
:10150000EF92FF920F931F93FC01E480F580068118
:101510001781D1808081823048F480E090E0A0E1A2
:10152000B0E0E82AF92A0A2B1B2BA5C0843009F465
:101530009FC0823021F4EE24FF24870105C0E1140E
:10154000F1040105110519F4E0E0F0E096C06281B4
:1015500073819FEF623879070CF05BC022E83FEFA0
:10156000261B370B2A3131052CF020E030E040E01B
:1015700050E02AC0B801A701022E04C076956795F5
:10158000579547950A94D2F781E090E0A0E0B0E04B
:1015900004C0880F991FAA1FBB1F2A95D2F7019775
:1015A000A109B1098E219F21A023B1230097A10594
:1015B000B10521F081E090E0A0E0B0E09A01AB013C
:1015C000282B392B4A2B5B2BDA01C9018F779070BE
:1015D000A070B07080349105A105B10539F427FFE2
:1015E00009C0205C3F4F4F4F5F4F04C0215C3F4F0D
:1015F0004F4F5F4FE0E0F0E02030A0E03A07A0E07E
:101600004A07A0E45A0710F0E1E0F0E079018A010E
:1016100027C06038710564F5FB01E158FF4FD80120
:10162000C7018F779070A070B07080349105A105CC
:10163000B10539F4E7FE0DC080E490E0A0E0B0E031
:1016400004C08FE390E0A0E0B0E0E80EF91E0A1FAE
:101650001B1F17FF05C016950795F794E794319661
:1016600087E016950795F794E7948A95D1F705C01A
:10167000EE24FF248701EFEFF0E06E2F67956627D9
:101680006795902F9F77D794DD24D7948E2F8695DA
:10169000492F462B582F5D29B701CA011F910F9181
:1016A000FF90EF90DF900895FC01DB0140815181B4
:1016B0002281622F6F7770E0221F2227221F9381E1
:1016C000892F880F822B282F30E0991F9927991F87
:1016D00011969C93119721153105A9F541155105D6
:1016E0006105710511F482E037C082E89FEF13961F
:1016F0009C938E9312979A01AB0167E0220F331FE0
:10170000441F551F6A95D1F783E08C930DC0220FBB
:10171000331F441F551F12968D919C91139701976B
:1017200013969C938E931297203080E0380780E0C8
:10173000480780E4580758F314962D933D934D9332
:101740005C93179708952F3F310579F441155105A2
:101750006105710519F484E08C93089564FF03C05A
:1017600081E08C9312C01C9210C02F57304013960A
:101770003C932E93129783E08C9387E0440F551F80
:10178000661F771F8A95D1F7706414964D935D9309
:101790006D937C93179708951F93DC01FB019C9137
:1017A000923008F447C08081823008F443C09430FE
:1017B00051F411961C91843099F58181682F70E065
:1017C000611B71093FC0843021F0923031F48230C6
:1017D000B9F18181882389F12DC011961C9111974F
:1017E0008230F1F081811817D9F412962D913C9135
:1017F0001397828193818217930794F028173907F2
:10180000BCF014968D919D910D90BC91A02D2481DA
:10181000358146815781281739074A075B0718F435
:10182000112341F00AC082179307A407B50740F4BB
:10183000112319F061E070E005C06FEF7FEF02C087
:1018400060E070E0CB011F910895629FD001739F0B
:10185000F001829FE00DF11D649FE00DF11D929F4C
:10186000F00D839FF00D749FF00D659FF00D99278B
:10187000729FB00DE11DF91F639FB00DE11DF91FAF
:10188000BD01CF011124089597FB092E07260AD028
:1018900077FD04D00CD006D000201AF47095619525
:1018A0007F4F0895F6F7909581959F4F0895AA1B55
:1018B000BB1B51E107C0AA1FBB1FA617B70710F03B
:1018C000A61BB70B881F991F5A95A9F7809590956D
:1018D000BC01CD0108952F923F924F925F926F927B
:1018E0007F928F929F92AF92BF92CF92DF92EF92B0
:1018F000FF920F931F93CF93DF93CDB7DEB7CA1B31
:10190000DB0B0FB6F894DEBF0FBECDBF19942A884B
:10191000398848885F846E847D848C849B84AA8403
:10192000B984C884DF80EE80FD800C811B81AA8190
:10193000B981CE0FD11D0FB6F894DEBF0FBECDBF5B
:08194000ED010895F894FFCFBA
:10194800039F250D9949411F01090000000000006F
:101958000000000102020303030304040404040456
:101968000404050505050505050505050505050521
:101978000505060606060606060606060606060601
:1019880006060606060606060606060606060606EF
:1019980006060707070707070707070707070707D1
:1019A80007070707070707070707070707070707BF
:1019B80007070707070707070707070707070707AF
:1019C800070707070707070707070707070707079F
:1019D8000707080808080808080808080808080881
:1019E800080808080808080808080808080808086F
:1019F800080808080808080808080808080808085F
:101A0800080808080808080808080808080808084E
:101A1800080808080808080808080808080808083E
:101A2800080808080808080808080808080808082E
:101A3800080808080808080808080808080808081E
:101A4800080808080808080808080808080808080E
:021A580008087C
:00000001FF
